{
  "contractName": "MyToken",
  "abi": [
    {
      "inputs": [],
      "stateMutability": "nonpayable",
      "type": "constructor"
    },
    {
      "anonymous": false,
      "inputs": [
        {
          "indexed": true,
          "internalType": "address",
          "name": "owner",
          "type": "address"
        },
        {
          "indexed": true,
          "internalType": "address",
          "name": "approved",
          "type": "address"
        },
        {
          "indexed": true,
          "internalType": "uint256",
          "name": "tokenId",
          "type": "uint256"
        }
      ],
      "name": "Approval",
      "type": "event"
    },
    {
      "anonymous": false,
      "inputs": [
        {
          "indexed": true,
          "internalType": "address",
          "name": "owner",
          "type": "address"
        },
        {
          "indexed": true,
          "internalType": "address",
          "name": "operator",
          "type": "address"
        },
        {
          "indexed": false,
          "internalType": "bool",
          "name": "approved",
          "type": "bool"
        }
      ],
      "name": "ApprovalForAll",
      "type": "event"
    },
    {
      "anonymous": false,
      "inputs": [
        {
          "indexed": true,
          "internalType": "address",
          "name": "previousOwner",
          "type": "address"
        },
        {
          "indexed": true,
          "internalType": "address",
          "name": "newOwner",
          "type": "address"
        }
      ],
      "name": "OwnershipTransferred",
      "type": "event"
    },
    {
      "anonymous": false,
      "inputs": [
        {
          "indexed": false,
          "internalType": "address",
          "name": "account",
          "type": "address"
        }
      ],
      "name": "Paused",
      "type": "event"
    },
    {
      "anonymous": false,
      "inputs": [
        {
          "indexed": true,
          "internalType": "address",
          "name": "from",
          "type": "address"
        },
        {
          "indexed": true,
          "internalType": "address",
          "name": "to",
          "type": "address"
        },
        {
          "indexed": true,
          "internalType": "uint256",
          "name": "tokenId",
          "type": "uint256"
        }
      ],
      "name": "Transfer",
      "type": "event"
    },
    {
      "anonymous": false,
      "inputs": [
        {
          "indexed": false,
          "internalType": "address",
          "name": "account",
          "type": "address"
        }
      ],
      "name": "Unpaused",
      "type": "event"
    },
    {
      "inputs": [
        {
          "internalType": "address",
          "name": "to",
          "type": "address"
        },
        {
          "internalType": "uint256",
          "name": "tokenId",
          "type": "uint256"
        }
      ],
      "name": "approve",
      "outputs": [],
      "stateMutability": "nonpayable",
      "type": "function"
    },
    {
      "inputs": [
        {
          "internalType": "address",
          "name": "owner",
          "type": "address"
        }
      ],
      "name": "balanceOf",
      "outputs": [
        {
          "internalType": "uint256",
          "name": "",
          "type": "uint256"
        }
      ],
      "stateMutability": "view",
      "type": "function",
      "constant": true
    },
    {
      "inputs": [
        {
          "internalType": "uint256",
          "name": "tokenId",
          "type": "uint256"
        }
      ],
      "name": "burn",
      "outputs": [],
      "stateMutability": "nonpayable",
      "type": "function"
    },
    {
      "inputs": [
        {
          "internalType": "uint256",
          "name": "tokenId",
          "type": "uint256"
        }
      ],
      "name": "getApproved",
      "outputs": [
        {
          "internalType": "address",
          "name": "",
          "type": "address"
        }
      ],
      "stateMutability": "view",
      "type": "function",
      "constant": true
    },
    {
      "inputs": [
        {
          "internalType": "address",
          "name": "owner",
          "type": "address"
        },
        {
          "internalType": "address",
          "name": "operator",
          "type": "address"
        }
      ],
      "name": "isApprovedForAll",
      "outputs": [
        {
          "internalType": "bool",
          "name": "",
          "type": "bool"
        }
      ],
      "stateMutability": "view",
      "type": "function",
      "constant": true
    },
    {
      "inputs": [],
      "name": "name",
      "outputs": [
        {
          "internalType": "string",
          "name": "",
          "type": "string"
        }
      ],
      "stateMutability": "view",
      "type": "function",
      "constant": true
    },
    {
      "inputs": [],
      "name": "owner",
      "outputs": [
        {
          "internalType": "address",
          "name": "",
          "type": "address"
        }
      ],
      "stateMutability": "view",
      "type": "function",
      "constant": true
    },
    {
      "inputs": [
        {
          "internalType": "uint256",
          "name": "tokenId",
          "type": "uint256"
        }
      ],
      "name": "ownerOf",
      "outputs": [
        {
          "internalType": "address",
          "name": "",
          "type": "address"
        }
      ],
      "stateMutability": "view",
      "type": "function",
      "constant": true
    },
    {
      "inputs": [],
      "name": "paused",
      "outputs": [
        {
          "internalType": "bool",
          "name": "",
          "type": "bool"
        }
      ],
      "stateMutability": "view",
      "type": "function",
      "constant": true
    },
    {
      "inputs": [],
      "name": "renounceOwnership",
      "outputs": [],
      "stateMutability": "nonpayable",
      "type": "function"
    },
    {
      "inputs": [
        {
          "internalType": "address",
          "name": "from",
          "type": "address"
        },
        {
          "internalType": "address",
          "name": "to",
          "type": "address"
        },
        {
          "internalType": "uint256",
          "name": "tokenId",
          "type": "uint256"
        }
      ],
      "name": "safeTransferFrom",
      "outputs": [],
      "stateMutability": "nonpayable",
      "type": "function"
    },
    {
      "inputs": [
        {
          "internalType": "address",
          "name": "from",
          "type": "address"
        },
        {
          "internalType": "address",
          "name": "to",
          "type": "address"
        },
        {
          "internalType": "uint256",
          "name": "tokenId",
          "type": "uint256"
        },
        {
          "internalType": "bytes",
          "name": "_data",
          "type": "bytes"
        }
      ],
      "name": "safeTransferFrom",
      "outputs": [],
      "stateMutability": "nonpayable",
      "type": "function"
    },
    {
      "inputs": [
        {
          "internalType": "address",
          "name": "operator",
          "type": "address"
        },
        {
          "internalType": "bool",
          "name": "approved",
          "type": "bool"
        }
      ],
      "name": "setApprovalForAll",
      "outputs": [],
      "stateMutability": "nonpayable",
      "type": "function"
    },
    {
      "inputs": [],
      "name": "symbol",
      "outputs": [
        {
          "internalType": "string",
          "name": "",
          "type": "string"
        }
      ],
      "stateMutability": "view",
      "type": "function",
      "constant": true
    },
    {
      "inputs": [
        {
          "internalType": "uint256",
          "name": "index",
          "type": "uint256"
        }
      ],
      "name": "tokenByIndex",
      "outputs": [
        {
          "internalType": "uint256",
          "name": "",
          "type": "uint256"
        }
      ],
      "stateMutability": "view",
      "type": "function",
      "constant": true
    },
    {
      "inputs": [
        {
          "internalType": "address",
          "name": "owner",
          "type": "address"
        },
        {
          "internalType": "uint256",
          "name": "index",
          "type": "uint256"
        }
      ],
      "name": "tokenOfOwnerByIndex",
      "outputs": [
        {
          "internalType": "uint256",
          "name": "",
          "type": "uint256"
        }
      ],
      "stateMutability": "view",
      "type": "function",
      "constant": true
    },
    {
      "inputs": [],
      "name": "totalSupply",
      "outputs": [
        {
          "internalType": "uint256",
          "name": "",
          "type": "uint256"
        }
      ],
      "stateMutability": "view",
      "type": "function",
      "constant": true
    },
    {
      "inputs": [
        {
          "internalType": "address",
          "name": "from",
          "type": "address"
        },
        {
          "internalType": "address",
          "name": "to",
          "type": "address"
        },
        {
          "internalType": "uint256",
          "name": "tokenId",
          "type": "uint256"
        }
      ],
      "name": "transferFrom",
      "outputs": [],
      "stateMutability": "nonpayable",
      "type": "function"
    },
    {
      "inputs": [
        {
          "internalType": "address",
          "name": "newOwner",
          "type": "address"
        }
      ],
      "name": "transferOwnership",
      "outputs": [],
      "stateMutability": "nonpayable",
      "type": "function"
    },
    {
      "inputs": [],
      "name": "pause",
      "outputs": [],
      "stateMutability": "nonpayable",
      "type": "function"
    },
    {
      "inputs": [],
      "name": "unpause",
      "outputs": [],
      "stateMutability": "nonpayable",
      "type": "function"
    },
    {
      "inputs": [
        {
          "internalType": "address",
          "name": "to",
          "type": "address"
        }
      ],
      "name": "safeMint",
      "outputs": [],
      "stateMutability": "nonpayable",
      "type": "function"
    },
    {
      "inputs": [
        {
          "internalType": "uint256",
          "name": "tokenId",
          "type": "uint256"
        }
      ],
      "name": "tokenURI",
      "outputs": [
        {
          "internalType": "string",
          "name": "",
          "type": "string"
        }
      ],
      "stateMutability": "view",
      "type": "function",
      "constant": true
    },
    {
      "inputs": [
        {
          "internalType": "bytes4",
          "name": "interfaceId",
          "type": "bytes4"
        }
      ],
      "name": "supportsInterface",
      "outputs": [
        {
          "internalType": "bool",
          "name": "",
          "type": "bool"
        }
      ],
      "stateMutability": "view",
      "type": "function",
      "constant": true
    },
    {
      "inputs": [
        {
          "internalType": "address",
          "name": "owner",
          "type": "address"
        },
        {
          "internalType": "string",
          "name": "_tokenURI",
          "type": "string"
        }
      ],
      "name": "mintNFT",
      "outputs": [
        {
          "internalType": "uint256",
          "name": "",
          "type": "uint256"
        }
      ],
      "stateMutability": "nonpayable",
      "type": "function"
    }
  ],
  "bytecode": "0x60806040523480156200001157600080fd5b506040518060400160405280600781526020017f4d79546f6b656e000000000000000000000000000000000000000000000000008152506040518060400160405280600381526020017f4d544b0000000000000000000000000000000000000000000000000000000000815250816000908051906020019062000096929190620001c1565b508060019080519060200190620000af929190620001c1565b5050506000600b60006101000a81548160ff021916908315150217905550620000ed620000e1620000f360201b60201c565b620000fb60201b60201c565b620002d6565b600033905090565b6000600b60019054906101000a900473ffffffffffffffffffffffffffffffffffffffff16905081600b60016101000a81548173ffffffffffffffffffffffffffffffffffffffff021916908373ffffffffffffffffffffffffffffffffffffffff1602179055508173ffffffffffffffffffffffffffffffffffffffff168173ffffffffffffffffffffffffffffffffffffffff167f8be0079c531659141344cd1fd0a4f28419497f9722a3daafe3b4186f6b6457e060405160405180910390a35050565b828054620001cf9062000271565b90600052602060002090601f016020900481019282620001f357600085556200023f565b82601f106200020e57805160ff19168380011785556200023f565b828001600101855582156200023f579182015b828111156200023e57825182559160200191906001019062000221565b5b5090506200024e919062000252565b5090565b5b808211156200026d57600081600090555060010162000253565b5090565b600060028204905060018216806200028a57607f821691505b60208210811415620002a157620002a0620002a7565b5b50919050565b7f4e487b7100000000000000000000000000000000000000000000000000000000600052602260045260246000fd5b613f9980620002e66000396000f3fe608060405234801561001057600080fd5b50600436106101735760003560e01c80635c975abb116100de57806395d89b4111610097578063c87b56dd11610071578063c87b56dd14610410578063e985e9c514610440578063eacabe1414610470578063f2fde38b146104a057610173565b806395d89b41146103ba578063a22cb465146103d8578063b88d4fde146103f457610173565b80635c975abb1461030a5780636352211e1461032857806370a0823114610358578063715018a6146103885780638456cb59146103925780638da5cb5b1461039c57610173565b80632f745c59116101305780632f745c591461024c5780633f4ba83a1461027c57806340d097c31461028657806342842e0e146102a257806342966c68146102be5780634f6ccce7146102da57610173565b806301ffc9a71461017857806306fdde03146101a8578063081812fc146101c6578063095ea7b3146101f657806318160ddd1461021257806323b872dd14610230575b600080fd5b610192600480360381019061018d9190612cba565b6104bc565b60405161019f91906131b5565b60405180910390f35b6101b06104ce565b6040516101bd91906131d0565b60405180910390f35b6101e060048036038101906101db9190612d0c565b610560565b6040516101ed919061314e565b60405180910390f35b610210600480360381019061020b9190612c7e565b6105e5565b005b61021a6106fd565b60405161022791906134d2565b60405180910390f35b61024a60048036038101906102459190612b24565b61070a565b005b61026660048036038101906102619190612c7e565b61076a565b60405161027391906134d2565b60405180910390f35b61028461080f565b005b6102a0600480360381019061029b9190612abf565b610895565b005b6102bc60048036038101906102b79190612b24565b610931565b005b6102d860048036038101906102d39190612d0c565b610951565b005b6102f460048036038101906102ef9190612d0c565b6109ad565b60405161030191906134d2565b60405180910390f35b610312610a44565b60405161031f91906131b5565b60405180910390f35b610342600480360381019061033d9190612d0c565b610a5b565b60405161034f919061314e565b60405180910390f35b610372600480360381019061036d9190612abf565b610b0d565b60405161037f91906134d2565b60405180910390f35b610390610bc5565b005b61039a610c4d565b005b6103a4610cd3565b6040516103b1919061314e565b60405180910390f35b6103c2610cfd565b6040516103cf91906131d0565b60405180910390f35b6103f260048036038101906103ed9190612bee565b610d8f565b005b61040e60048036038101906104099190612b73565b610f10565b005b61042a60048036038101906104259190612d0c565b610f72565b60405161043791906131d0565b60405180910390f35b61045a60048036038101906104559190612ae8565b610f84565b60405161046791906131b5565b60405180910390f35b61048a60048036038101906104859190612c2a565b611018565b60405161049791906134d2565b60405180910390f35b6104ba60048036038101906104b59190612abf565b611078565b005b60006104c782611170565b9050919050565b6060600080546104dd90613728565b80601f016020809104026020016040519081016040528092919081815260200182805461050990613728565b80156105565780601f1061052b57610100808354040283529160200191610556565b820191906000526020600020905b81548152906001019060200180831161053957829003601f168201915b5050505050905090565b600061056b826111ea565b6105aa576040517f08c379a00000000000000000000000000000000000000000000000000000000081526004016105a1906133d2565b60405180910390fd5b6004600083815260200190815260200160002060009054906101000a900473ffffffffffffffffffffffffffffffffffffffff169050919050565b60006105f082610a5b565b90508073ffffffffffffffffffffffffffffffffffffffff168373ffffffffffffffffffffffffffffffffffffffff161415610661576040517f08c379a000000000000000000000000000000000000000000000000000000000815260040161065890613452565b60405180910390fd5b8073ffffffffffffffffffffffffffffffffffffffff16610680611256565b73ffffffffffffffffffffffffffffffffffffffff1614806106af57506106ae816106a9611256565b610f84565b5b6106ee576040517f08c379a00000000000000000000000000000000000000000000000000000000081526004016106e590613312565b60405180910390fd5b6106f8838361125e565b505050565b6000600880549050905090565b61071b610715611256565b82611317565b61075a576040517f08c379a000000000000000000000000000000000000000000000000000000000815260040161075190613472565b60405180910390fd5b6107658383836113f5565b505050565b600061077583610b0d565b82106107b6576040517f08c379a00000000000000000000000000000000000000000000000000000000081526004016107ad90613212565b60405180910390fd5b600660008473ffffffffffffffffffffffffffffffffffffffff1673ffffffffffffffffffffffffffffffffffffffff168152602001908152602001600020600083815260200190815260200160002054905092915050565b610817611256565b73ffffffffffffffffffffffffffffffffffffffff16610835610cd3565b73ffffffffffffffffffffffffffffffffffffffff161461088b576040517f08c379a0000000000000000000000000000000000000000000000000000000008152600401610882906133f2565b60405180910390fd5b610893611651565b565b61089d611256565b73ffffffffffffffffffffffffffffffffffffffff166108bb610cd3565b73ffffffffffffffffffffffffffffffffffffffff1614610911576040517f08c379a0000000000000000000000000000000000000000000000000000000008152600401610908906133f2565b60405180910390fd5b6109248161091f600c6116f3565b611701565b61092e600c61171f565b50565b61094c83838360405180602001604052806000815250610f10565b505050565b61096261095c611256565b82611317565b6109a1576040517f08c379a0000000000000000000000000000000000000000000000000000000008152600401610998906134b2565b60405180910390fd5b6109aa81611735565b50565b60006109b76106fd565b82106109f8576040517f08c379a00000000000000000000000000000000000000000000000000000000081526004016109ef90613492565b60405180910390fd5b60088281548110610a32577f4e487b7100000000000000000000000000000000000000000000000000000000600052603260045260246000fd5b90600052602060002001549050919050565b6000600b60009054906101000a900460ff16905090565b6000806002600084815260200190815260200160002060009054906101000a900473ffffffffffffffffffffffffffffffffffffffff169050600073ffffffffffffffffffffffffffffffffffffffff168173ffffffffffffffffffffffffffffffffffffffff161415610b04576040517f08c379a0000000000000000000000000000000000000000000000000000000008152600401610afb90613352565b60405180910390fd5b80915050919050565b60008073ffffffffffffffffffffffffffffffffffffffff168273ffffffffffffffffffffffffffffffffffffffff161415610b7e576040517f08c379a0000000000000000000000000000000000000000000000000000000008152600401610b7590613332565b60405180910390fd5b600360008373ffffffffffffffffffffffffffffffffffffffff1673ffffffffffffffffffffffffffffffffffffffff168152602001908152602001600020549050919050565b610bcd611256565b73ffffffffffffffffffffffffffffffffffffffff16610beb610cd3565b73ffffffffffffffffffffffffffffffffffffffff1614610c41576040517f08c379a0000000000000000000000000000000000000000000000000000000008152600401610c38906133f2565b60405180910390fd5b610c4b6000611741565b565b610c55611256565b73ffffffffffffffffffffffffffffffffffffffff16610c73610cd3565b73ffffffffffffffffffffffffffffffffffffffff1614610cc9576040517f08c379a0000000000000000000000000000000000000000000000000000000008152600401610cc0906133f2565b60405180910390fd5b610cd1611807565b565b6000600b60019054906101000a900473ffffffffffffffffffffffffffffffffffffffff16905090565b606060018054610d0c90613728565b80601f0160208091040260200160405190810160405280929190818152602001828054610d3890613728565b8015610d855780601f10610d5a57610100808354040283529160200191610d85565b820191906000526020600020905b815481529060010190602001808311610d6857829003601f168201915b5050505050905090565b610d97611256565b73ffffffffffffffffffffffffffffffffffffffff168273ffffffffffffffffffffffffffffffffffffffff161415610e05576040517f08c379a0000000000000000000000000000000000000000000000000000000008152600401610dfc906132b2565b60405180910390fd5b8060056000610e12611256565b73ffffffffffffffffffffffffffffffffffffffff1673ffffffffffffffffffffffffffffffffffffffff16815260200190815260200160002060008473ffffffffffffffffffffffffffffffffffffffff1673ffffffffffffffffffffffffffffffffffffffff16815260200190815260200160002060006101000a81548160ff0219169083151502179055508173ffffffffffffffffffffffffffffffffffffffff16610ebf611256565b73ffffffffffffffffffffffffffffffffffffffff167f17307eab39ab6107e8899845ad3d59bd9653f200f220920489ca2b5937696c3183604051610f0491906131b5565b60405180910390a35050565b610f21610f1b611256565b83611317565b610f60576040517f08c379a0000000000000000000000000000000000000000000000000000000008152600401610f5790613472565b60405180910390fd5b610f6c848484846118aa565b50505050565b6060610f7d82611906565b9050919050565b6000600560008473ffffffffffffffffffffffffffffffffffffffff1673ffffffffffffffffffffffffffffffffffffffff16815260200190815260200160002060008373ffffffffffffffffffffffffffffffffffffffff1673ffffffffffffffffffffffffffffffffffffffff16815260200190815260200160002060009054906101000a900460ff16905092915050565b600080611025600c6116f3565b90506110318482611a58565b611064818461103f84611c26565b60405160200161105092919061312a565b604051602081830303815290604052611dd3565b61106e600c61171f565b8091505092915050565b611080611256565b73ffffffffffffffffffffffffffffffffffffffff1661109e610cd3565b73ffffffffffffffffffffffffffffffffffffffff16146110f4576040517f08c379a00000000000000000000000000000000000000000000000000000000081526004016110eb906133f2565b60405180910390fd5b600073ffffffffffffffffffffffffffffffffffffffff168173ffffffffffffffffffffffffffffffffffffffff161415611164576040517f08c379a000000000000000000000000000000000000000000000000000000000815260040161115b90613252565b60405180910390fd5b61116d81611741565b50565b60007f780e9d63000000000000000000000000000000000000000000000000000000007bffffffffffffffffffffffffffffffffffffffffffffffffffffffff1916827bffffffffffffffffffffffffffffffffffffffffffffffffffffffff191614806111e357506111e282611e47565b5b9050919050565b60008073ffffffffffffffffffffffffffffffffffffffff166002600084815260200190815260200160002060009054906101000a900473ffffffffffffffffffffffffffffffffffffffff1673ffffffffffffffffffffffffffffffffffffffff1614159050919050565b600033905090565b816004600083815260200190815260200160002060006101000a81548173ffffffffffffffffffffffffffffffffffffffff021916908373ffffffffffffffffffffffffffffffffffffffff160217905550808273ffffffffffffffffffffffffffffffffffffffff166112d183610a5b565b73ffffffffffffffffffffffffffffffffffffffff167f8c5be1e5ebec7d5bd14f71427d1e84f3dd0314c0f7b2291e5b200ac8c7c3b92560405160405180910390a45050565b6000611322826111ea565b611361576040517f08c379a0000000000000000000000000000000000000000000000000000000008152600401611358906132d2565b60405180910390fd5b600061136c83610a5b565b90508073ffffffffffffffffffffffffffffffffffffffff168473ffffffffffffffffffffffffffffffffffffffff1614806113db57508373ffffffffffffffffffffffffffffffffffffffff166113c384610560565b73ffffffffffffffffffffffffffffffffffffffff16145b806113ec57506113eb8185610f84565b5b91505092915050565b8273ffffffffffffffffffffffffffffffffffffffff1661141582610a5b565b73ffffffffffffffffffffffffffffffffffffffff161461146b576040517f08c379a000000000000000000000000000000000000000000000000000000000815260040161146290613412565b60405180910390fd5b600073ffffffffffffffffffffffffffffffffffffffff168273ffffffffffffffffffffffffffffffffffffffff1614156114db576040517f08c379a00000000000000000000000000000000000000000000000000000000081526004016114d290613292565b60405180910390fd5b6114e6838383611f29565b6114f160008261125e565b6001600360008573ffffffffffffffffffffffffffffffffffffffff1673ffffffffffffffffffffffffffffffffffffffff1681526020019081526020016000206000828254611541919061363e565b925050819055506001600360008473ffffffffffffffffffffffffffffffffffffffff1673ffffffffffffffffffffffffffffffffffffffff168152602001908152602001600020600082825461159891906135b7565b92505081905550816002600083815260200190815260200160002060006101000a81548173ffffffffffffffffffffffffffffffffffffffff021916908373ffffffffffffffffffffffffffffffffffffffff160217905550808273ffffffffffffffffffffffffffffffffffffffff168473ffffffffffffffffffffffffffffffffffffffff167fddf252ad1be2c89b69c2b068fc378daa952ba7f163c4a11628f55a4df523b3ef60405160405180910390a4505050565b611659610a44565b611698576040517f08c379a000000000000000000000000000000000000000000000000000000000815260040161168f906131f2565b60405180910390fd5b6000600b60006101000a81548160ff0219169083151502179055507f5db9ee0a495bf2e6ff9c91a7834c1ba4fdd244a5e8aa4e537bd38aeae4b073aa6116dc611256565b6040516116e9919061314e565b60405180910390a1565b600081600001549050919050565b61171b828260405180602001604052806000815250611f81565b5050565b6001816000016000828254019250508190555050565b61173e81611fdc565b50565b6000600b60019054906101000a900473ffffffffffffffffffffffffffffffffffffffff16905081600b60016101000a81548173ffffffffffffffffffffffffffffffffffffffff021916908373ffffffffffffffffffffffffffffffffffffffff1602179055508173ffffffffffffffffffffffffffffffffffffffff168173ffffffffffffffffffffffffffffffffffffffff167f8be0079c531659141344cd1fd0a4f28419497f9722a3daafe3b4186f6b6457e060405160405180910390a35050565b61180f610a44565b1561184f576040517f08c379a0000000000000000000000000000000000000000000000000000000008152600401611846906132f2565b60405180910390fd5b6001600b60006101000a81548160ff0219169083151502179055507f62e78cea01bee320cd4e420270b5ea74000d11b0c9f74754ebdbfc544b05a258611893611256565b6040516118a0919061314e565b60405180910390a1565b6118b58484846113f5565b6118c18484848461202f565b611900576040517f08c379a00000000000000000000000000000000000000000000000000000000081526004016118f790613232565b60405180910390fd5b50505050565b6060611911826111ea565b611950576040517f08c379a0000000000000000000000000000000000000000000000000000000008152600401611947906133b2565b60405180910390fd5b6000600a6000848152602001908152602001600020805461197090613728565b80601f016020809104026020016040519081016040528092919081815260200182805461199c90613728565b80156119e95780601f106119be576101008083540402835291602001916119e9565b820191906000526020600020905b8154815290600101906020018083116119cc57829003601f168201915b5050505050905060006119fa6121c6565b9050600081511415611a10578192505050611a53565b600082511115611a45578082604051602001611a2d92919061312a565b60405160208183030381529060405292505050611a53565b611a4e846121dd565b925050505b919050565b600073ffffffffffffffffffffffffffffffffffffffff168273ffffffffffffffffffffffffffffffffffffffff161415611ac8576040517f08c379a0000000000000000000000000000000000000000000000000000000008152600401611abf90613392565b60405180910390fd5b611ad1816111ea565b15611b11576040517f08c379a0000000000000000000000000000000000000000000000000000000008152600401611b0890613272565b60405180910390fd5b611b1d60008383611f29565b6001600360008473ffffffffffffffffffffffffffffffffffffffff1673ffffffffffffffffffffffffffffffffffffffff1681526020019081526020016000206000828254611b6d91906135b7565b92505081905550816002600083815260200190815260200160002060006101000a81548173ffffffffffffffffffffffffffffffffffffffff021916908373ffffffffffffffffffffffffffffffffffffffff160217905550808273ffffffffffffffffffffffffffffffffffffffff16600073ffffffffffffffffffffffffffffffffffffffff167fddf252ad1be2c89b69c2b068fc378daa952ba7f163c4a11628f55a4df523b3ef60405160405180910390a45050565b60606000821415611c6e576040518060400160405280600181526020017f30000000000000000000000000000000000000000000000000000000000000008152509050611dce565b600082905060005b60008214611ca0578080611c899061378b565b915050600a82611c99919061360d565b9150611c76565b60008167ffffffffffffffff811115611ce2577f4e487b7100000000000000000000000000000000000000000000000000000000600052604160045260246000fd5b6040519080825280601f01601f191660200182016040528015611d145781602001600182028036833780820191505090505b5090505b60008514611dc757600182611d2d919061363e565b9150600a85611d3c91906137d4565b6030611d4891906135b7565b60f81b818381518110611d84577f4e487b7100000000000000000000000000000000000000000000000000000000600052603260045260246000fd5b60200101907effffffffffffffffffffffffffffffffffffffffffffffffffffffffffffff1916908160001a905350600a85611dc0919061360d565b9450611d18565b8093505050505b919050565b611ddc826111ea565b611e1b576040517f08c379a0000000000000000000000000000000000000000000000000000000008152600401611e1290613372565b60405180910390fd5b80600a60008481526020019081526020016000209080519060200190611e429291906128a3565b505050565b60007f80ac58cd000000000000000000000000000000000000000000000000000000007bffffffffffffffffffffffffffffffffffffffffffffffffffffffff1916827bffffffffffffffffffffffffffffffffffffffffffffffffffffffff19161480611f1257507f5b5e139f000000000000000000000000000000000000000000000000000000007bffffffffffffffffffffffffffffffffffffffffffffffffffffffff1916827bffffffffffffffffffffffffffffffffffffffffffffffffffffffff1916145b80611f225750611f2182612284565b5b9050919050565b611f31610a44565b15611f71576040517f08c379a0000000000000000000000000000000000000000000000000000000008152600401611f68906132f2565b60405180910390fd5b611f7c8383836122ee565b505050565b611f8b8383611a58565b611f98600084848461202f565b611fd7576040517f08c379a0000000000000000000000000000000000000000000000000000000008152600401611fce90613232565b60405180910390fd5b505050565b611fe581612402565b6000600a6000838152602001908152602001600020805461200590613728565b90501461202c57600a6000828152602001908152602001600020600061202b9190612929565b5b50565b60006120508473ffffffffffffffffffffffffffffffffffffffff16612513565b156121b9578373ffffffffffffffffffffffffffffffffffffffff1663150b7a02612079611256565b8786866040518563ffffffff1660e01b815260040161209b9493929190613169565b602060405180830381600087803b1580156120b557600080fd5b505af19250505080156120e657506040513d601f19601f820116820180604052508101906120e39190612ce3565b60015b612169573d8060008114612116576040519150601f19603f3d011682016040523d82523d6000602084013e61211b565b606091505b50600081511415612161576040517f08c379a000000000000000000000000000000000000000000000000000000000815260040161215890613232565b60405180910390fd5b805181602001fd5b63150b7a0260e01b7bffffffffffffffffffffffffffffffffffffffffffffffffffffffff1916817bffffffffffffffffffffffffffffffffffffffffffffffffffffffff1916149150506121be565b600190505b949350505050565b606060405180602001604052806000815250905090565b60606121e8826111ea565b612227576040517f08c379a000000000000000000000000000000000000000000000000000000000815260040161221e90613432565b60405180910390fd5b60006122316121c6565b90506000815111612251576040518060200160405280600081525061227c565b8061225b84611c26565b60405160200161226c92919061312a565b6040516020818303038152906040525b915050919050565b60007f01ffc9a7000000000000000000000000000000000000000000000000000000007bffffffffffffffffffffffffffffffffffffffffffffffffffffffff1916827bffffffffffffffffffffffffffffffffffffffffffffffffffffffff1916149050919050565b6122f9838383612526565b600073ffffffffffffffffffffffffffffffffffffffff168373ffffffffffffffffffffffffffffffffffffffff16141561233c576123378161252b565b61237b565b8173ffffffffffffffffffffffffffffffffffffffff168373ffffffffffffffffffffffffffffffffffffffff161461237a576123798382612574565b5b5b600073ffffffffffffffffffffffffffffffffffffffff168273ffffffffffffffffffffffffffffffffffffffff1614156123be576123b9816126e1565b6123fd565b8273ffffffffffffffffffffffffffffffffffffffff168273ffffffffffffffffffffffffffffffffffffffff16146123fc576123fb8282612824565b5b5b505050565b600061240d82610a5b565b905061241b81600084611f29565b61242660008361125e565b6001600360008373ffffffffffffffffffffffffffffffffffffffff1673ffffffffffffffffffffffffffffffffffffffff1681526020019081526020016000206000828254612476919061363e565b925050819055506002600083815260200190815260200160002060006101000a81549073ffffffffffffffffffffffffffffffffffffffff021916905581600073ffffffffffffffffffffffffffffffffffffffff168273ffffffffffffffffffffffffffffffffffffffff167fddf252ad1be2c89b69c2b068fc378daa952ba7f163c4a11628f55a4df523b3ef60405160405180910390a45050565b600080823b905060008111915050919050565b505050565b6008805490506009600083815260200190815260200160002081905550600881908060018154018082558091505060019003906000526020600020016000909190919091505550565b6000600161258184610b0d565b61258b919061363e565b9050600060076000848152602001908152602001600020549050818114612670576000600660008673ffffffffffffffffffffffffffffffffffffffff1673ffffffffffffffffffffffffffffffffffffffff168152602001908152602001600020600084815260200190815260200160002054905080600660008773ffffffffffffffffffffffffffffffffffffffff1673ffffffffffffffffffffffffffffffffffffffff168152602001908152602001600020600084815260200190815260200160002081905550816007600083815260200190815260200160002081905550505b6007600084815260200190815260200160002060009055600660008573ffffffffffffffffffffffffffffffffffffffff1673ffffffffffffffffffffffffffffffffffffffff16815260200190815260200160002060008381526020019081526020016000206000905550505050565b600060016008805490506126f5919061363e565b905060006009600084815260200190815260200160002054905060006008838154811061274b577f4e487b7100000000000000000000000000000000000000000000000000000000600052603260045260246000fd5b906000526020600020015490508060088381548110612793577f4e487b7100000000000000000000000000000000000000000000000000000000600052603260045260246000fd5b906000526020600020018190555081600960008381526020019081526020016000208190555060096000858152602001908152602001600020600090556008805480612808577f4e487b7100000000000000000000000000000000000000000000000000000000600052603160045260246000fd5b6001900381819060005260206000200160009055905550505050565b600061282f83610b0d565b905081600660008573ffffffffffffffffffffffffffffffffffffffff1673ffffffffffffffffffffffffffffffffffffffff168152602001908152602001600020600083815260200190815260200160002081905550806007600084815260200190815260200160002081905550505050565b8280546128af90613728565b90600052602060002090601f0160209004810192826128d15760008555612918565b82601f106128ea57805160ff1916838001178555612918565b82800160010185558215612918579182015b828111156129175782518255916020019190600101906128fc565b5b5090506129259190612969565b5090565b50805461293590613728565b6000825580601f106129475750612966565b601f0160209004906000526020600020908101906129659190612969565b5b50565b5b8082111561298257600081600090555060010161296a565b5090565b600061299961299484613512565b6134ed565b9050828152602081018484840111156129b157600080fd5b6129bc8482856136e6565b509392505050565b60006129d76129d284613543565b6134ed565b9050828152602081018484840111156129ef57600080fd5b6129fa8482856136e6565b509392505050565b600081359050612a1181613f07565b92915050565b600081359050612a2681613f1e565b92915050565b600081359050612a3b81613f35565b92915050565b600081519050612a5081613f35565b92915050565b600082601f830112612a6757600080fd5b8135612a77848260208601612986565b91505092915050565b600082601f830112612a9157600080fd5b8135612aa18482602086016129c4565b91505092915050565b600081359050612ab981613f4c565b92915050565b600060208284031215612ad157600080fd5b6000612adf84828501612a02565b91505092915050565b60008060408385031215612afb57600080fd5b6000612b0985828601612a02565b9250506020612b1a85828601612a02565b9150509250929050565b600080600060608486031215612b3957600080fd5b6000612b4786828701612a02565b9350506020612b5886828701612a02565b9250506040612b6986828701612aaa565b9150509250925092565b60008060008060808587031215612b8957600080fd5b6000612b9787828801612a02565b9450506020612ba887828801612a02565b9350506040612bb987828801612aaa565b925050606085013567ffffffffffffffff811115612bd657600080fd5b612be287828801612a56565b91505092959194509250565b60008060408385031215612c0157600080fd5b6000612c0f85828601612a02565b9250506020612c2085828601612a17565b9150509250929050565b60008060408385031215612c3d57600080fd5b6000612c4b85828601612a02565b925050602083013567ffffffffffffffff811115612c6857600080fd5b612c7485828601612a80565b9150509250929050565b60008060408385031215612c9157600080fd5b6000612c9f85828601612a02565b9250506020612cb085828601612aaa565b9150509250929050565b600060208284031215612ccc57600080fd5b6000612cda84828501612a2c565b91505092915050565b600060208284031215612cf557600080fd5b6000612d0384828501612a41565b91505092915050565b600060208284031215612d1e57600080fd5b6000612d2c84828501612aaa565b91505092915050565b612d3e81613672565b82525050565b612d4d81613684565b82525050565b6000612d5e82613574565b612d68818561358a565b9350612d788185602086016136f5565b612d81816138c1565b840191505092915050565b6000612d978261357f565b612da1818561359b565b9350612db18185602086016136f5565b612dba816138c1565b840191505092915050565b6000612dd08261357f565b612dda81856135ac565b9350612dea8185602086016136f5565b80840191505092915050565b6000612e0360148361359b565b9150612e0e826138d2565b602082019050919050565b6000612e26602b8361359b565b9150612e31826138fb565b604082019050919050565b6000612e4960328361359b565b9150612e548261394a565b604082019050919050565b6000612e6c60268361359b565b9150612e7782613999565b604082019050919050565b6000612e8f601c8361359b565b9150612e9a826139e8565b602082019050919050565b6000612eb260248361359b565b9150612ebd82613a11565b604082019050919050565b6000612ed560198361359b565b9150612ee082613a60565b602082019050919050565b6000612ef8602c8361359b565b9150612f0382613a89565b604082019050919050565b6000612f1b60108361359b565b9150612f2682613ad8565b602082019050919050565b6000612f3e60388361359b565b9150612f4982613b01565b604082019050919050565b6000612f61602a8361359b565b9150612f6c82613b50565b604082019050919050565b6000612f8460298361359b565b9150612f8f82613b9f565b604082019050919050565b6000612fa7602e8361359b565b9150612fb282613bee565b604082019050919050565b6000612fca60208361359b565b9150612fd582613c3d565b602082019050919050565b6000612fed60318361359b565b9150612ff882613c66565b604082019050919050565b6000613010602c8361359b565b915061301b82613cb5565b604082019050919050565b600061303360208361359b565b915061303e82613d04565b602082019050919050565b600061305660298361359b565b915061306182613d2d565b604082019050919050565b6000613079602f8361359b565b915061308482613d7c565b604082019050919050565b600061309c60218361359b565b91506130a782613dcb565b604082019050919050565b60006130bf60318361359b565b91506130ca82613e1a565b604082019050919050565b60006130e2602c8361359b565b91506130ed82613e69565b604082019050919050565b600061310560308361359b565b915061311082613eb8565b604082019050919050565b613124816136dc565b82525050565b60006131368285612dc5565b91506131428284612dc5565b91508190509392505050565b60006020820190506131636000830184612d35565b92915050565b600060808201905061317e6000830187612d35565b61318b6020830186612d35565b613198604083018561311b565b81810360608301526131aa8184612d53565b905095945050505050565b60006020820190506131ca6000830184612d44565b92915050565b600060208201905081810360008301526131ea8184612d8c565b905092915050565b6000602082019050818103600083015261320b81612df6565b9050919050565b6000602082019050818103600083015261322b81612e19565b9050919050565b6000602082019050818103600083015261324b81612e3c565b9050919050565b6000602082019050818103600083015261326b81612e5f565b9050919050565b6000602082019050818103600083015261328b81612e82565b9050919050565b600060208201905081810360008301526132ab81612ea5565b9050919050565b600060208201905081810360008301526132cb81612ec8565b9050919050565b600060208201905081810360008301526132eb81612eeb565b9050919050565b6000602082019050818103600083015261330b81612f0e565b9050919050565b6000602082019050818103600083015261332b81612f31565b9050919050565b6000602082019050818103600083015261334b81612f54565b9050919050565b6000602082019050818103600083015261336b81612f77565b9050919050565b6000602082019050818103600083015261338b81612f9a565b9050919050565b600060208201905081810360008301526133ab81612fbd565b9050919050565b600060208201905081810360008301526133cb81612fe0565b9050919050565b600060208201905081810360008301526133eb81613003565b9050919050565b6000602082019050818103600083015261340b81613026565b9050919050565b6000602082019050818103600083015261342b81613049565b9050919050565b6000602082019050818103600083015261344b8161306c565b9050919050565b6000602082019050818103600083015261346b8161308f565b9050919050565b6000602082019050818103600083015261348b816130b2565b9050919050565b600060208201905081810360008301526134ab816130d5565b9050919050565b600060208201905081810360008301526134cb816130f8565b9050919050565b60006020820190506134e7600083018461311b565b92915050565b60006134f7613508565b9050613503828261375a565b919050565b6000604051905090565b600067ffffffffffffffff82111561352d5761352c613892565b5b613536826138c1565b9050602081019050919050565b600067ffffffffffffffff82111561355e5761355d613892565b5b613567826138c1565b9050602081019050919050565b600081519050919050565b600081519050919050565b600082825260208201905092915050565b600082825260208201905092915050565b600081905092915050565b60006135c2826136dc565b91506135cd836136dc565b9250827fffffffffffffffffffffffffffffffffffffffffffffffffffffffffffffffff0382111561360257613601613805565b5b828201905092915050565b6000613618826136dc565b9150613623836136dc565b92508261363357613632613834565b5b828204905092915050565b6000613649826136dc565b9150613654836136dc565b92508282101561366757613666613805565b5b828203905092915050565b600061367d826136bc565b9050919050565b60008115159050919050565b60007fffffffff0000000000000000000000000000000000000000000000000000000082169050919050565b600073ffffffffffffffffffffffffffffffffffffffff82169050919050565b6000819050919050565b82818337600083830152505050565b60005b838110156137135780820151818401526020810190506136f8565b83811115613722576000848401525b50505050565b6000600282049050600182168061374057607f821691505b6020821081141561375457613753613863565b5b50919050565b613763826138c1565b810181811067ffffffffffffffff8211171561378257613781613892565b5b80604052505050565b6000613796826136dc565b91507fffffffffffffffffffffffffffffffffffffffffffffffffffffffffffffffff8214156137c9576137c8613805565b5b600182019050919050565b60006137df826136dc565b91506137ea836136dc565b9250826137fa576137f9613834565b5b828206905092915050565b7f4e487b7100000000000000000000000000000000000000000000000000000000600052601160045260246000fd5b7f4e487b7100000000000000000000000000000000000000000000000000000000600052601260045260246000fd5b7f4e487b7100000000000000000000000000000000000000000000000000000000600052602260045260246000fd5b7f4e487b7100000000000000000000000000000000000000000000000000000000600052604160045260246000fd5b6000601f19601f8301169050919050565b7f5061757361626c653a206e6f7420706175736564000000000000000000000000600082015250565b7f455243373231456e756d657261626c653a206f776e657220696e646578206f7560008201527f74206f6620626f756e6473000000000000000000000000000000000000000000602082015250565b7f4552433732313a207472616e7366657220746f206e6f6e20455243373231526560008201527f63656976657220696d706c656d656e7465720000000000000000000000000000602082015250565b7f4f776e61626c653a206e6577206f776e657220697320746865207a65726f206160008201527f6464726573730000000000000000000000000000000000000000000000000000602082015250565b7f4552433732313a20746f6b656e20616c7265616479206d696e74656400000000600082015250565b7f4552433732313a207472616e7366657220746f20746865207a65726f2061646460008201527f7265737300000000000000000000000000000000000000000000000000000000602082015250565b7f4552433732313a20617070726f766520746f2063616c6c657200000000000000600082015250565b7f4552433732313a206f70657261746f7220717565727920666f72206e6f6e657860008201527f697374656e7420746f6b656e0000000000000000000000000000000000000000602082015250565b7f5061757361626c653a2070617573656400000000000000000000000000000000600082015250565b7f4552433732313a20617070726f76652063616c6c6572206973206e6f74206f7760008201527f6e6572206e6f7220617070726f76656420666f7220616c6c0000000000000000602082015250565b7f4552433732313a2062616c616e636520717565727920666f7220746865207a6560008201527f726f206164647265737300000000000000000000000000000000000000000000602082015250565b7f4552433732313a206f776e657220717565727920666f72206e6f6e657869737460008201527f656e7420746f6b656e0000000000000000000000000000000000000000000000602082015250565b7f45524337323155524953746f726167653a2055524920736574206f66206e6f6e60008201527f6578697374656e7420746f6b656e000000000000000000000000000000000000602082015250565b7f4552433732313a206d696e7420746f20746865207a65726f2061646472657373600082015250565b7f45524337323155524953746f726167653a2055524920717565727920666f722060008201527f6e6f6e6578697374656e7420746f6b656e000000000000000000000000000000602082015250565b7f4552433732313a20617070726f76656420717565727920666f72206e6f6e657860008201527f697374656e7420746f6b656e0000000000000000000000000000000000000000602082015250565b7f4f776e61626c653a2063616c6c6572206973206e6f7420746865206f776e6572600082015250565b7f4552433732313a207472616e73666572206f6620746f6b656e2074686174206960008201527f73206e6f74206f776e0000000000000000000000000000000000000000000000602082015250565b7f4552433732314d657461646174613a2055524920717565727920666f72206e6f60008201527f6e6578697374656e7420746f6b656e0000000000000000000000000000000000602082015250565b7f4552433732313a20617070726f76616c20746f2063757272656e74206f776e6560008201527f7200000000000000000000000000000000000000000000000000000000000000602082015250565b7f4552433732313a207472616e736665722063616c6c6572206973206e6f74206f60008201527f776e6572206e6f7220617070726f766564000000000000000000000000000000602082015250565b7f455243373231456e756d657261626c653a20676c6f62616c20696e646578206f60008201527f7574206f6620626f756e64730000000000000000000000000000000000000000602082015250565b7f4552433732314275726e61626c653a2063616c6c6572206973206e6f74206f7760008201527f6e6572206e6f7220617070726f76656400000000000000000000000000000000602082015250565b613f1081613672565b8114613f1b57600080fd5b50565b613f2781613684565b8114613f3257600080fd5b50565b613f3e81613690565b8114613f4957600080fd5b50565b613f55816136dc565b8114613f6057600080fd5b5056fea2646970667358221220a7385dcaa541c3d5bbb2aa7da3dcf33c20d24438fe2dbce37088dcec587c16a064736f6c63430008020033",
  "immutableReferences": {},
  "source": "// SPDX-License-Identifier: MIT\npragma solidity ^0.8.2;\n\nimport \"@openzeppelin/contracts/token/ERC721/ERC721.sol\";\nimport \"@openzeppelin/contracts/token/ERC721/extensions/ERC721Enumerable.sol\";\nimport \"@openzeppelin/contracts/token/ERC721/extensions/ERC721URIStorage.sol\";\nimport \"@openzeppelin/contracts/security/Pausable.sol\";\nimport \"@openzeppelin/contracts/access/Ownable.sol\";\nimport \"@openzeppelin/contracts/token/ERC721/extensions/ERC721Burnable.sol\";\nimport \"@openzeppelin/contracts/utils/Counters.sol\";\nimport \"@openzeppelin/contracts/utils/Strings.sol\";\n\ncontract MyToken is\n    ERC721,\n    ERC721Enumerable,\n    ERC721URIStorage,\n    Pausable,\n    Ownable,\n    ERC721Burnable\n{\n    using Counters for Counters.Counter;\n    using Strings for uint256;\n\n    Counters.Counter private _tokenIdCounter;\n\n    constructor() ERC721(\"MyToken\", \"MTK\") {}\n\n    function pause() public onlyOwner {\n        _pause();\n    }\n\n    function unpause() public onlyOwner {\n        _unpause();\n    }\n\n    function safeMint(address to) public onlyOwner {\n        _safeMint(to, _tokenIdCounter.current());\n        _tokenIdCounter.increment();\n    }\n\n    function _beforeTokenTransfer(\n        address from,\n        address to,\n        uint256 tokenId\n    ) internal override(ERC721, ERC721Enumerable) whenNotPaused {\n        super._beforeTokenTransfer(from, to, tokenId);\n    }\n\n    // The following functions are overrides required by Solidity.\n\n    function _burn(uint256 tokenId)\n        internal\n        override(ERC721, ERC721URIStorage)\n    {\n        super._burn(tokenId);\n    }\n\n    function tokenURI(uint256 tokenId)\n        public\n        view\n        override(ERC721, ERC721URIStorage)\n        returns (string memory)\n    {\n        return super.tokenURI(tokenId);\n    }\n\n    function supportsInterface(bytes4 interfaceId)\n        public\n        view\n        override(ERC721, ERC721Enumerable)\n        returns (bool)\n    {\n        return super.supportsInterface(interfaceId);\n    }\n\n    function mintNFT(address owner, string memory _tokenURI)\n        public\n        returns (uint256)\n    {\n        uint256 newId = _tokenIdCounter.current();\n        _mint(owner, newId);\n        _setTokenURI(newId, string(abi.encodePacked(_tokenURI,newId.toString())));\n\n        _tokenIdCounter.increment();\n\n        return newId;\n    }\n\n    \n}\n",
  "sourcePath": "/Users/tamaki/myERC721Token/contracts/MyToken.sol",
  "compiler": {
    "name": "solc",
    "version": "0.8.2+commit.661d1103.Emscripten.clang"
  },
  "schemaVersion": "3.4.3",
  "updatedAt": "2021-09-11T20:39:48.136Z",
  "networkType": "ethereum",
  "devdoc": {
    "kind": "dev",
    "methods": {
      "approve(address,uint256)": {
        "details": "See {IERC721-approve}."
      },
      "balanceOf(address)": {
        "details": "See {IERC721-balanceOf}."
      },
      "burn(uint256)": {
        "details": "Burns `tokenId`. See {ERC721-_burn}. Requirements: - The caller must own `tokenId` or be an approved operator."
      },
      "getApproved(uint256)": {
        "details": "See {IERC721-getApproved}."
      },
      "isApprovedForAll(address,address)": {
        "details": "See {IERC721-isApprovedForAll}."
      },
      "name()": {
        "details": "See {IERC721Metadata-name}."
      },
      "owner()": {
        "details": "Returns the address of the current owner."
      },
      "ownerOf(uint256)": {
        "details": "See {IERC721-ownerOf}."
      },
      "paused()": {
        "details": "Returns true if the contract is paused, and false otherwise."
      },
      "renounceOwnership()": {
        "details": "Leaves the contract without owner. It will not be possible to call `onlyOwner` functions anymore. Can only be called by the current owner. NOTE: Renouncing ownership will leave the contract without an owner, thereby removing any functionality that is only available to the owner."
      },
      "safeTransferFrom(address,address,uint256)": {
        "details": "See {IERC721-safeTransferFrom}."
      },
      "safeTransferFrom(address,address,uint256,bytes)": {
        "details": "See {IERC721-safeTransferFrom}."
      },
      "setApprovalForAll(address,bool)": {
        "details": "See {IERC721-setApprovalForAll}."
      },
      "symbol()": {
        "details": "See {IERC721Metadata-symbol}."
      },
      "tokenByIndex(uint256)": {
        "details": "See {IERC721Enumerable-tokenByIndex}."
      },
      "tokenOfOwnerByIndex(address,uint256)": {
        "details": "See {IERC721Enumerable-tokenOfOwnerByIndex}."
      },
      "totalSupply()": {
        "details": "See {IERC721Enumerable-totalSupply}."
      },
      "transferFrom(address,address,uint256)": {
        "details": "See {IERC721-transferFrom}."
      },
      "transferOwnership(address)": {
        "details": "Transfers ownership of the contract to a new account (`newOwner`). Can only be called by the current owner."
      }
    },
    "version": 1
  },
  "userdoc": {
    "kind": "user",
    "methods": {},
    "version": 1
  }
}